{
  "transactions": [
    {
      "hash": "0x04ee0301e8ea595568ecd6a037e700158f746eba61d95ad6aced4cba3d2e3915",
      "transactionType": "CALL",
      "contractName": null,
      "contractAddress": "0xa8d57a9f03acf9cdfc3cd378e3c3859661dcb91a",
      "function": "send((uint32,bytes32,uint256,uint256,bytes,bytes,bytes),(uint256,uint256),address)",
      "arguments": [
        "(40161, 0x000000000000000000000000e78bf5bb8f4a98a1ac3a8de304e5f66bcefe1038, 10300000000000000000, 9785000000000000000, 0x0003010011010000000000000000000000000000fde8, 0x, 0x)",
        "(10206975078429, 0)",
        "0x1804c8AB1F12E6bbf3894d4083f33e07309d1f38"
      ],
      "transaction": {
        "from": "0xe78bf5bb8f4a98a1ac3a8de304e5f66bcefe1038",
        "to": "0xa8d57a9f03acf9cdfc3cd378e3c3859661dcb91a",
        "gas": "0x4ee9d",
        "value": "0x9487f1fb01d",
        "input": "0xc7c7f5b30000000000000000000000000000000000000000000000000000000000000080000000000000000000000000000000000000000000000000000009487f1fb01d00000000000000000000000000000000000000000000000000000000000000000000000000000000000000001804c8ab1f12e6bbf3894d4083f33e07309d1f380000000000000000000000000000000000000000000000000000000000009ce1000000000000000000000000e78bf5bb8f4a98a1ac3a8de304e5f66bcefe10380000000000000000000000000000000000000000000000008ef0f36da286000000000000000000000000000000000000000000000000000087cb4da82732800000000000000000000000000000000000000000000000000000000000000000e00000000000000000000000000000000000000000000000000000000000000120000000000000000000000000000000000000000000000000000000000000014000000000000000000000000000000000000000000000000000000000000000160003010011010000000000000000000000000000fde80000000000000000000000000000000000000000000000000000000000000000000000000000000000000000000000000000000000000000000000000000000000000000000000000000",
        "nonce": "0x2",
        "chainId": "0x66eee"
      },
      "additionalContracts": [],
      "isFixedGasLimit": false
    }
  ],
  "receipts": [
    {
      "status": "0x1",
      "cumulativeGasUsed": "0x3b98f",
      "logs": [
        {
          "address": "0xa8d57a9f03acf9cdfc3cd378e3c3859661dcb91a",
          "topics": [
            "0xddf252ad1be2c89b69c2b068fc378daa952ba7f163c4a11628f55a4df523b3ef",
            "0x000000000000000000000000e78bf5bb8f4a98a1ac3a8de304e5f66bcefe1038",
            "0x0000000000000000000000000000000000000000000000000000000000000000"
          ],
          "data": "0x0000000000000000000000000000000000000000000000008ef0f36da2860000",
          "blockHash": "0xcf7cfc60fa6105384850195c67a78944fc8f638415390cade8d8c825b4203747",
          "blockNumber": "0xcf1bc0d",
          "blockTimestamp": "0x691f223e",
          "transactionHash": "0x04ee0301e8ea595568ecd6a037e700158f746eba61d95ad6aced4cba3d2e3915",
          "transactionIndex": "0x1",
          "logIndex": "0x0",
          "removed": false
        },
        {
          "address": "0x4f7cd4da19abb31b0ec98b9066b9e857b1bf9c0e",
          "topics": [
            "0x61ed099e74a97a1d7f8bb0952a88ca8b7b8ebd00c126ea04671f92a81213318a"
          ],
          "data": "0x0000000000000000000000005df3a1cebbd9c8ba7f8df51fd632a9aef83088970000000000000000000000000000000000000000000000000000062cc5564d39",
          "blockHash": "0xcf7cfc60fa6105384850195c67a78944fc8f638415390cade8d8c825b4203747",
          "blockNumber": "0xcf1bc0d",
          "blockTimestamp": "0x691f223e",
          "transactionHash": "0x04ee0301e8ea595568ecd6a037e700158f746eba61d95ad6aced4cba3d2e3915",
          "transactionIndex": "0x1",
          "logIndex": "0x1",
          "removed": false
        },
        {
          "address": "0x4f7cd4da19abb31b0ec98b9066b9e857b1bf9c0e",
          "topics": [
            "0x07ea52d82345d6e838192107d8fd7123d9c2ec8e916cd0aad13fd2b60db24644"
          ],
          "data": "0x000000000000000000000000000000000000000000000000000000000000006000000000000000000000000000000000000000000000000000000000000000a000000000000000000000000000000000000000000000000000000000000000c0000000000000000000000000000000000000000000000000000000000000000100000000000000000000000053f488e93b4f1b60e8e83aa374dbe1780a1ee8a8000000000000000000000000000000000000000000000000000000000000000000000000000000000000000000000000000000000000000000000000000000010000000000000000000000000000000000000000000000000000031bb9c962e4",
          "blockHash": "0xcf7cfc60fa6105384850195c67a78944fc8f638415390cade8d8c825b4203747",
          "blockNumber": "0xcf1bc0d",
          "blockTimestamp": "0x691f223e",
          "transactionHash": "0x04ee0301e8ea595568ecd6a037e700158f746eba61d95ad6aced4cba3d2e3915",
          "transactionIndex": "0x1",
          "logIndex": "0x2",
          "removed": false
        },
        {
          "address": "0x6edce65403992e310a62460808c4b910d972f10f",
          "topics": [
            "0x1ab700d4ced0c005b164c0f789fd09fcbb0156d4c2041b8a3bfbcd961cd1567f"
          ],
          "data": "0x000000000000000000000000000000000000000000000000000000000000006000000000000000000000000000000000000000000000000000000000000001200000000000000000000000004f7cd4da19abb31b0ec98b9066b9e857b1bf9c0e000000000000000000000000000000000000000000000000000000000000009901000000000000000100009d27000000000000000000000000a8d57a9f03acf9cdfc3cd378e3c3859661dcb91a00009ce100000000000000000000000018e2a0a279e9aae8c22db14a3d01de7f556d201bf738e0bf2b3eae4eff13c9a9ffd69acdc6b6cf9a792814efe739b1084b080c9c000000000000000000000000e78bf5bb8f4a98a1ac3a8de304e5f66bcefe103800000000009d2a600000000000000000000000000000000000000000000000000000000000000000000000000000160003010011010000000000000000000000000000fde800000000000000000000",
          "blockHash": "0xcf7cfc60fa6105384850195c67a78944fc8f638415390cade8d8c825b4203747",
          "blockNumber": "0xcf1bc0d",
          "blockTimestamp": "0x691f223e",
          "transactionHash": "0x04ee0301e8ea595568ecd6a037e700158f746eba61d95ad6aced4cba3d2e3915",
          "transactionIndex": "0x1",
          "logIndex": "0x3",
          "removed": false
        },
        {
          "address": "0xa8d57a9f03acf9cdfc3cd378e3c3859661dcb91a",
          "topics": [
            "0x85496b760a4b7f8d66384b9df21b381f5d1b1e79f229a47aaf4c232edc2fe59a",
            "0xf738e0bf2b3eae4eff13c9a9ffd69acdc6b6cf9a792814efe739b1084b080c9c",
            "0x000000000000000000000000e78bf5bb8f4a98a1ac3a8de304e5f66bcefe1038"
          ],
          "data": "0x0000000000000000000000000000000000000000000000000000000000009ce10000000000000000000000000000000000000000000000008ef0f36da28600000000000000000000000000000000000000000000000000008ef0f36da2860000",
          "blockHash": "0xcf7cfc60fa6105384850195c67a78944fc8f638415390cade8d8c825b4203747",
          "blockNumber": "0xcf1bc0d",
          "blockTimestamp": "0x691f223e",
          "transactionHash": "0x04ee0301e8ea595568ecd6a037e700158f746eba61d95ad6aced4cba3d2e3915",
          "transactionIndex": "0x1",
          "logIndex": "0x4",
          "removed": false
        }
      ],
      "logsBloom": "0x00000000010000000000000000000000000000000000000000000000000000000000000000000000201000000000000000000000008000000000000000000000000002000000000000000008000000000000000000000000000000000000000000000040024000808200000000000800200000000000000000000010000000001000000000000020000008080000000000000000000000010000000000000000000000008000000000102000000000000000000000400000000440000000000000000002000000000000000080000000000000000000000000000000000020000000040000000000000000000000002000000000008000000000000000100000",
      "type": "0x2",
      "transactionHash": "0x04ee0301e8ea595568ecd6a037e700158f746eba61d95ad6aced4cba3d2e3915",
      "transactionIndex": "0x1",
      "blockHash": "0xcf7cfc60fa6105384850195c67a78944fc8f638415390cade8d8c825b4203747",
      "blockNumber": "0xcf1bc0d",
      "gasUsed": "0x3b98f",
      "effectiveGasPrice": "0x5f5e100",
      "from": "0xe78bf5bb8f4a98a1ac3a8de304e5f66bcefe1038",
      "to": "0xa8d57a9f03acf9cdfc3cd378e3c3859661dcb91a",
      "contractAddress": null,
      "gasUsedForL1": "0x0",
      "l1BlockNumber": "0x9389b0",
      "timeboosted": false
    }
  ],
  "libraries": [],
  "pending": [],
  "returns": {},
  "timestamp": 1763648066,
  "chain": 421614,
  "commit": null
}