{
  "transactions": [
    {
      "hash": "0xb18c0a86df382293a0adc56fae16b5dc333f37fa7b22e83b797aa09ba1dcce50",
      "transactionType": "CALL",
      "contractName": null,
      "contractAddress": "0x613f5bb247dd3d2c9b18b938b7f8466ff0acb15f",
      "function": "send((uint32,bytes32,uint256,uint256,bytes,bytes,bytes),(uint256,uint256),address)",
      "arguments": [
        "(40231, 0x000000000000000000000000e78bf5bb8f4a98a1ac3a8de304e5f66bcefe1038, 10000000000000000000, 9500000000000000000, 0x0003010011010000000000000000000000000000fde8, 0x, 0x)",
        "(82768865235152, 0)",
        "0x1804c8AB1F12E6bbf3894d4083f33e07309d1f38"
      ],
      "transaction": {
        "from": "0xe78bf5bb8f4a98a1ac3a8de304e5f66bcefe1038",
        "to": "0x613f5bb247dd3d2c9b18b938b7f8466ff0acb15f",
        "gas": "0x57282",
        "value": "0x4b4720cf90d0",
        "input": "0xc7c7f5b3000000000000000000000000000000000000000000000000000000000000008000000000000000000000000000000000000000000000000000004b4720cf90d000000000000000000000000000000000000000000000000000000000000000000000000000000000000000001804c8ab1f12e6bbf3894d4083f33e07309d1f380000000000000000000000000000000000000000000000000000000000009d27000000000000000000000000e78bf5bb8f4a98a1ac3a8de304e5f66bcefe10380000000000000000000000000000000000000000000000008ac7230489e8000000000000000000000000000000000000000000000000000083d6c7aab636000000000000000000000000000000000000000000000000000000000000000000e00000000000000000000000000000000000000000000000000000000000000120000000000000000000000000000000000000000000000000000000000000014000000000000000000000000000000000000000000000000000000000000000160003010011010000000000000000000000000000fde80000000000000000000000000000000000000000000000000000000000000000000000000000000000000000000000000000000000000000000000000000000000000000000000000000",
        "nonce": "0xe",
        "chainId": "0x14a34"
      },
      "additionalContracts": [],
      "isFixedGasLimit": false
    }
  ],
  "receipts": [
    {
      "status": "0x1",
      "cumulativeGasUsed": "0x9e9889",
      "logs": [
        {
          "address": "0x613f5bb247dd3d2c9b18b938b7f8466ff0acb15f",
          "topics": [
            "0xddf252ad1be2c89b69c2b068fc378daa952ba7f163c4a11628f55a4df523b3ef",
            "0x000000000000000000000000e78bf5bb8f4a98a1ac3a8de304e5f66bcefe1038",
            "0x0000000000000000000000000000000000000000000000000000000000000000"
          ],
          "data": "0x0000000000000000000000000000000000000000000000008ac7230489e80000",
          "blockHash": "0x05c9c0b99523bc857e8e9fa30b350c2db08544bda634c93893f69ab65d103518",
          "blockNumber": "0x209c208",
          "blockTimestamp": "0x6926e2f0",
          "transactionHash": "0xb18c0a86df382293a0adc56fae16b5dc333f37fa7b22e83b797aa09ba1dcce50",
          "transactionIndex": "0x17",
          "logIndex": "0x12d",
          "removed": false
        },
        {
          "address": "0xc1868e054425d378095a003ecba3823a5d0135c9",
          "topics": [
            "0x61ed099e74a97a1d7f8bb0952a88ca8b7b8ebd00c126ea04671f92a81213318a"
          ],
          "data": "0x0000000000000000000000008a3d588d9f6ac041476b094f97ff94ec30169d3d0000000000000000000000000000000000000000000000000000461efa00a2ae",
          "blockHash": "0x05c9c0b99523bc857e8e9fa30b350c2db08544bda634c93893f69ab65d103518",
          "blockNumber": "0x209c208",
          "blockTimestamp": "0x6926e2f0",
          "transactionHash": "0xb18c0a86df382293a0adc56fae16b5dc333f37fa7b22e83b797aa09ba1dcce50",
          "transactionIndex": "0x17",
          "logIndex": "0x12e",
          "removed": false
        },
        {
          "address": "0xc1868e054425d378095a003ecba3823a5d0135c9",
          "topics": [
            "0x07ea52d82345d6e838192107d8fd7123d9c2ec8e916cd0aad13fd2b60db24644"
          ],
          "data": "0x000000000000000000000000000000000000000000000000000000000000006000000000000000000000000000000000000000000000000000000000000000a000000000000000000000000000000000000000000000000000000000000000c00000000000000000000000000000000000000000000000000000000000000001000000000000000000000000e1a12515f9ab2764b887bf60b923ca494ebbb2d6000000000000000000000000000000000000000000000000000000000000000000000000000000000000000000000000000000000000000000000000000000010000000000000000000000000000000000000000000000000000052826ceee22",
          "blockHash": "0x05c9c0b99523bc857e8e9fa30b350c2db08544bda634c93893f69ab65d103518",
          "blockNumber": "0x209c208",
          "blockTimestamp": "0x6926e2f0",
          "transactionHash": "0xb18c0a86df382293a0adc56fae16b5dc333f37fa7b22e83b797aa09ba1dcce50",
          "transactionIndex": "0x17",
          "logIndex": "0x12f",
          "removed": false
        },
        {
          "address": "0x6edce65403992e310a62460808c4b910d972f10f",
          "topics": [
            "0x1ab700d4ced0c005b164c0f789fd09fcbb0156d4c2041b8a3bfbcd961cd1567f"
          ],
          "data": "0x00000000000000000000000000000000000000000000000000000000000000600000000000000000000000000000000000000000000000000000000000000120000000000000000000000000c1868e054425d378095a003ecba3823a5d0135c9000000000000000000000000000000000000000000000000000000000000009901000000000000000100009d35000000000000000000000000613f5bb247dd3d2c9b18b938b7f8466ff0acb15f00009d27000000000000000000000000613f5bb247dd3d2c9b18b938b7f8466ff0acb15ffdd2a074fd30063382fd8cfef8893d799d4f08139ce1e1eec549cd9a55f9d813000000000000000000000000e78bf5bb8f4a98a1ac3a8de304e5f66bcefe103800000000009896800000000000000000000000000000000000000000000000000000000000000000000000000000160003010011010000000000000000000000000000fde800000000000000000000",
          "blockHash": "0x05c9c0b99523bc857e8e9fa30b350c2db08544bda634c93893f69ab65d103518",
          "blockNumber": "0x209c208",
          "blockTimestamp": "0x6926e2f0",
          "transactionHash": "0xb18c0a86df382293a0adc56fae16b5dc333f37fa7b22e83b797aa09ba1dcce50",
          "transactionIndex": "0x17",
          "logIndex": "0x130",
          "removed": false
        },
        {
          "address": "0x613f5bb247dd3d2c9b18b938b7f8466ff0acb15f",
          "topics": [
            "0x85496b760a4b7f8d66384b9df21b381f5d1b1e79f229a47aaf4c232edc2fe59a",
            "0xfdd2a074fd30063382fd8cfef8893d799d4f08139ce1e1eec549cd9a55f9d813",
            "0x000000000000000000000000e78bf5bb8f4a98a1ac3a8de304e5f66bcefe1038"
          ],
          "data": "0x0000000000000000000000000000000000000000000000000000000000009d270000000000000000000000000000000000000000000000008ac7230489e800000000000000000000000000000000000000000000000000008ac7230489e80000",
          "blockHash": "0x05c9c0b99523bc857e8e9fa30b350c2db08544bda634c93893f69ab65d103518",
          "blockNumber": "0x209c208",
          "blockTimestamp": "0x6926e2f0",
          "transactionHash": "0xb18c0a86df382293a0adc56fae16b5dc333f37fa7b22e83b797aa09ba1dcce50",
          "transactionIndex": "0x17",
          "logIndex": "0x131",
          "removed": false
        }
      ],
      "logsBloom": "0x00000000000000000000000000000000000002000000000000000000000000000000000000000200200000000000000200000000800000000000000000000000000002000000000000000008000000000000000000010000020000020000000000000040020000808200000000000800040000000000000000000010000000001000000000000020000000080000000000000000000000000000000000000000000000008000000000100000000000000000000000400000000440000000000080000002000000000000000080000000000000000000000000000000000020000000040000000000000000000000002000000000008000000000000000000000",
      "type": "0x2",
      "transactionHash": "0xb18c0a86df382293a0adc56fae16b5dc333f37fa7b22e83b797aa09ba1dcce50",
      "transactionIndex": "0x17",
      "blockHash": "0x05c9c0b99523bc857e8e9fa30b350c2db08544bda634c93893f69ab65d103518",
      "blockNumber": "0x209c208",
      "gasUsed": "0x3b983",
      "effectiveGasPrice": "0x126a74",
      "blobGasUsed": "0xe3e8",
      "from": "0xe78bf5bb8f4a98a1ac3a8de304e5f66bcefe1038",
      "to": "0x613f5bb247dd3d2c9b18b938b7f8466ff0acb15f",
      "contractAddress": null,
      "daFootprintGasScalar": "0x138",
      "l1BaseFeeScalar": "0x44d",
      "l1BlobBaseFee": "0x1",
      "l1BlobBaseFeeScalar": "0xa118b",
      "l1Fee": "0x58",
      "l1GasPrice": "0xd",
      "l1GasUsed": "0xbb7"
    }
  ],
  "libraries": [],
  "pending": [],
  "returns": {},
  "timestamp": 1764156145,
  "chain": 84532,
  "commit": null
}