{
  "transactions": [
    {
      "hash": "0x8c70d3717ff8628f5817e52443850b1aaf7002177ac7eed025973c425ddc3d0d",
      "transactionType": "CALL",
      "contractName": null,
      "contractAddress": "0x18e2a0a279e9aae8c22db14a3d01de7f556d201b",
      "function": "send((uint32,bytes32,uint256,uint256,bytes,bytes,bytes),(uint256,uint256),address)",
      "arguments": [
        "(40231, 0x000000000000000000000000e78bf5bb8f4a98a1ac3a8de304e5f66bcefe1038, 10000000000000000000, 9500000000000000000, 0x0003010011010000000000000000000000000000fde8, 0x, 0x)",
        "(35898999744435, 0)",
        "0x1804c8AB1F12E6bbf3894d4083f33e07309d1f38"
      ],
      "transaction": {
        "from": "0xe78bf5bb8f4a98a1ac3a8de304e5f66bcefe1038",
        "to": "0x18e2a0a279e9aae8c22db14a3d01de7f556d201b",
        "gas": "0x52516",
        "value": "0x20a66320a7b3",
        "input": "0xc7c7f5b30000000000000000000000000000000000000000000000000000000000000080000000000000000000000000000000000000000000000000000020a66320a7b300000000000000000000000000000000000000000000000000000000000000000000000000000000000000001804c8ab1f12e6bbf3894d4083f33e07309d1f380000000000000000000000000000000000000000000000000000000000009d27000000000000000000000000e78bf5bb8f4a98a1ac3a8de304e5f66bcefe10380000000000000000000000000000000000000000000000008ac7230489e8000000000000000000000000000000000000000000000000000083d6c7aab636000000000000000000000000000000000000000000000000000000000000000000e00000000000000000000000000000000000000000000000000000000000000120000000000000000000000000000000000000000000000000000000000000014000000000000000000000000000000000000000000000000000000000000000160003010011010000000000000000000000000000fde80000000000000000000000000000000000000000000000000000000000000000000000000000000000000000000000000000000000000000000000000000000000000000000000000000",
        "nonce": "0x12",
        "chainId": "0xaa36a7"
      },
      "additionalContracts": [],
      "isFixedGasLimit": false
    }
  ],
  "receipts": [
    {
      "status": "0x1",
      "cumulativeGasUsed": "0x11e3fba",
      "logs": [
        {
          "address": "0x18e2a0a279e9aae8c22db14a3d01de7f556d201b",
          "topics": [
            "0xddf252ad1be2c89b69c2b068fc378daa952ba7f163c4a11628f55a4df523b3ef",
            "0x000000000000000000000000e78bf5bb8f4a98a1ac3a8de304e5f66bcefe1038",
            "0x0000000000000000000000000000000000000000000000000000000000000000"
          ],
          "data": "0x0000000000000000000000000000000000000000000000008ac7230489e80000",
          "blockHash": "0xd23f0a95d9b36d6eb3fa929e6b31753c1affd9f92b3803d40edea3c0f80bea48",
          "blockNumber": "0x93899d",
          "blockTimestamp": "0x691f2120",
          "transactionHash": "0x8c70d3717ff8628f5817e52443850b1aaf7002177ac7eed025973c425ddc3d0d",
          "transactionIndex": "0x99",
          "logIndex": "0xe5",
          "removed": false
        },
        {
          "address": "0xcc1ae8cf5d3904cef3360a9532b477529b177cce",
          "topics": [
            "0x61ed099e74a97a1d7f8bb0952a88ca8b7b8ebd00c126ea04671f92a81213318a"
          ],
          "data": "0x000000000000000000000000718b92b5cb0a5552039b593faf724d182a881eda0000000000000000000000000000000000000000000000000000148d0a8da800",
          "blockHash": "0xd23f0a95d9b36d6eb3fa929e6b31753c1affd9f92b3803d40edea3c0f80bea48",
          "blockNumber": "0x93899d",
          "blockTimestamp": "0x691f2120",
          "transactionHash": "0x8c70d3717ff8628f5817e52443850b1aaf7002177ac7eed025973c425ddc3d0d",
          "transactionIndex": "0x99",
          "logIndex": "0xe6",
          "removed": false
        },
        {
          "address": "0xcc1ae8cf5d3904cef3360a9532b477529b177cce",
          "topics": [
            "0x07ea52d82345d6e838192107d8fd7123d9c2ec8e916cd0aad13fd2b60db24644"
          ],
          "data": "0x000000000000000000000000000000000000000000000000000000000000006000000000000000000000000000000000000000000000000000000000000000a000000000000000000000000000000000000000000000000000000000000000c000000000000000000000000000000000000000000000000000000000000000010000000000000000000000008eebf8b423b73bfca51a1db4b7354aa0bfca91930000000000000000000000000000000000000000000000000000000000000000000000000000000000000000000000000000000000000000000000000000000100000000000000000000000000000000000000000000000000000c195892ffb3",
          "blockHash": "0xd23f0a95d9b36d6eb3fa929e6b31753c1affd9f92b3803d40edea3c0f80bea48",
          "blockNumber": "0x93899d",
          "blockTimestamp": "0x691f2120",
          "transactionHash": "0x8c70d3717ff8628f5817e52443850b1aaf7002177ac7eed025973c425ddc3d0d",
          "transactionIndex": "0x99",
          "logIndex": "0xe7",
          "removed": false
        },
        {
          "address": "0x6edce65403992e310a62460808c4b910d972f10f",
          "topics": [
            "0x1ab700d4ced0c005b164c0f789fd09fcbb0156d4c2041b8a3bfbcd961cd1567f"
          ],
          "data": "0x00000000000000000000000000000000000000000000000000000000000000600000000000000000000000000000000000000000000000000000000000000120000000000000000000000000cc1ae8cf5d3904cef3360a9532b477529b177cce000000000000000000000000000000000000000000000000000000000000009901000000000000000100009ce100000000000000000000000018e2a0a279e9aae8c22db14a3d01de7f556d201b00009d27000000000000000000000000a8d57a9f03acf9cdfc3cd378e3c3859661dcb91a13c3e4a9c68e6ad4e44d7259174c90db96095c7c5c26c0f9cd8ef1733e0e065c000000000000000000000000e78bf5bb8f4a98a1ac3a8de304e5f66bcefe103800000000009896800000000000000000000000000000000000000000000000000000000000000000000000000000160003010011010000000000000000000000000000fde800000000000000000000",
          "blockHash": "0xd23f0a95d9b36d6eb3fa929e6b31753c1affd9f92b3803d40edea3c0f80bea48",
          "blockNumber": "0x93899d",
          "blockTimestamp": "0x691f2120",
          "transactionHash": "0x8c70d3717ff8628f5817e52443850b1aaf7002177ac7eed025973c425ddc3d0d",
          "transactionIndex": "0x99",
          "logIndex": "0xe8",
          "removed": false
        },
        {
          "address": "0x18e2a0a279e9aae8c22db14a3d01de7f556d201b",
          "topics": [
            "0x85496b760a4b7f8d66384b9df21b381f5d1b1e79f229a47aaf4c232edc2fe59a",
            "0x13c3e4a9c68e6ad4e44d7259174c90db96095c7c5c26c0f9cd8ef1733e0e065c",
            "0x000000000000000000000000e78bf5bb8f4a98a1ac3a8de304e5f66bcefe1038"
          ],
          "data": "0x0000000000000000000000000000000000000000000000000000000000009d270000000000000000000000000000000000000000000000008ac7230489e800000000000000000000000000000000000000000000000000008ac7230489e80000",
          "blockHash": "0xd23f0a95d9b36d6eb3fa929e6b31753c1affd9f92b3803d40edea3c0f80bea48",
          "blockNumber": "0x93899d",
          "blockTimestamp": "0x691f2120",
          "transactionHash": "0x8c70d3717ff8628f5817e52443850b1aaf7002177ac7eed025973c425ddc3d0d",
          "transactionIndex": "0x99",
          "logIndex": "0xe9",
          "removed": false
        }
      ],
      "logsBloom": "0x00000000000000000000000000000000000000000000000000000000000100200000000000000000300000000000000000000000000000000000000000000000000002000000000000000008000000000000000000000000000000000000000000000040020000808200000000000800000000001000000000000010000000001100000000000020000000080000040000000000000000000000000000000000000000008000000000100000000000000000000000400000000440000000000000000002000000000000000080000000000000080000000000000000000020000000040000000000000000000000002000000000008000000000000001000020",
      "type": "0x2",
      "transactionHash": "0x8c70d3717ff8628f5817e52443850b1aaf7002177ac7eed025973c425ddc3d0d",
      "transactionIndex": "0x99",
      "blockHash": "0xd23f0a95d9b36d6eb3fa929e6b31753c1affd9f92b3803d40edea3c0f80bea48",
      "blockNumber": "0x93899d",
      "gasUsed": "0x3b98d",
      "effectiveGasPrice": "0xf4255",
      "from": "0xe78bf5bb8f4a98a1ac3a8de304e5f66bcefe1038",
      "to": "0x18e2a0a279e9aae8c22db14a3d01de7f556d201b",
      "contractAddress": null
    }
  ],
  "libraries": [],
  "pending": [],
  "returns": {},
  "timestamp": 1763647778,
  "chain": 11155111,
  "commit": null
}