{
  "transactions": [
    {
      "hash": "0xec2d4e47489b3c99bacd707cda7a9462a76e3be4e65d92724d4803d8ba8daef4",
      "transactionType": "CALL",
      "contractName": null,
      "contractAddress": "0xa8d57a9f03acf9cdfc3cd378e3c3859661dcb91a",
      "function": "send((uint32,bytes32,uint256,uint256,bytes,bytes,bytes),(uint256,uint256),address)",
      "arguments": [
        "(40161, 0x000000000000000000000000e78bf5bb8f4a98a1ac3a8de304e5f66bcefe1038, 10300000000000000000, 9785000000000000000, 0x0003010011010000000000000000000000000000fde8, 0x, 0x)",
        "(69956439380284, 0)",
        "0x1804c8AB1F12E6bbf3894d4083f33e07309d1f38"
      ],
      "transaction": {
        "from": "0xe78bf5bb8f4a98a1ac3a8de304e5f66bcefe1038",
        "to": "0xa8d57a9f03acf9cdfc3cd378e3c3859661dcb91a",
        "gas": "0x57282",
        "value": "0x3fa000b8113c",
        "input": "0xc7c7f5b3000000000000000000000000000000000000000000000000000000000000008000000000000000000000000000000000000000000000000000003fa000b8113c00000000000000000000000000000000000000000000000000000000000000000000000000000000000000001804c8ab1f12e6bbf3894d4083f33e07309d1f380000000000000000000000000000000000000000000000000000000000009ce1000000000000000000000000e78bf5bb8f4a98a1ac3a8de304e5f66bcefe10380000000000000000000000000000000000000000000000008ef0f36da286000000000000000000000000000000000000000000000000000087cb4da82732800000000000000000000000000000000000000000000000000000000000000000e00000000000000000000000000000000000000000000000000000000000000120000000000000000000000000000000000000000000000000000000000000014000000000000000000000000000000000000000000000000000000000000000160003010011010000000000000000000000000000fde80000000000000000000000000000000000000000000000000000000000000000000000000000000000000000000000000000000000000000000000000000000000000000000000000000",
        "nonce": "0x3",
        "chainId": "0x14a34"
      },
      "additionalContracts": [],
      "isFixedGasLimit": false
    }
  ],
  "receipts": [
    {
      "status": "0x1",
      "cumulativeGasUsed": "0xb001e",
      "logs": [
        {
          "address": "0xa8d57a9f03acf9cdfc3cd378e3c3859661dcb91a",
          "topics": [
            "0xddf252ad1be2c89b69c2b068fc378daa952ba7f163c4a11628f55a4df523b3ef",
            "0x000000000000000000000000e78bf5bb8f4a98a1ac3a8de304e5f66bcefe1038",
            "0x0000000000000000000000000000000000000000000000000000000000000000"
          ],
          "data": "0x0000000000000000000000000000000000000000000000008ef0f36da2860000",
          "blockHash": "0x618c475d88259e615f0787fd612e6cdb47185e8967fa553353cd21b4972ac34d",
          "blockNumber": "0x20499ca",
          "blockTimestamp": "0x691c9274",
          "transactionHash": "0xec2d4e47489b3c99bacd707cda7a9462a76e3be4e65d92724d4803d8ba8daef4",
          "transactionIndex": "0x7",
          "logIndex": "0x8",
          "removed": false
        },
        {
          "address": "0xc1868e054425d378095a003ecba3823a5d0135c9",
          "topics": [
            "0x61ed099e74a97a1d7f8bb0952a88ca8b7b8ebd00c126ea04671f92a81213318a"
          ],
          "data": "0x0000000000000000000000008a3d588d9f6ac041476b094f97ff94ec30169d3d00000000000000000000000000000000000000000000000000003c842ef958c4",
          "blockHash": "0x618c475d88259e615f0787fd612e6cdb47185e8967fa553353cd21b4972ac34d",
          "blockNumber": "0x20499ca",
          "blockTimestamp": "0x691c9274",
          "transactionHash": "0xec2d4e47489b3c99bacd707cda7a9462a76e3be4e65d92724d4803d8ba8daef4",
          "transactionIndex": "0x7",
          "logIndex": "0x9",
          "removed": false
        },
        {
          "address": "0xc1868e054425d378095a003ecba3823a5d0135c9",
          "topics": [
            "0x07ea52d82345d6e838192107d8fd7123d9c2ec8e916cd0aad13fd2b60db24644"
          ],
          "data": "0x000000000000000000000000000000000000000000000000000000000000006000000000000000000000000000000000000000000000000000000000000000a000000000000000000000000000000000000000000000000000000000000000c00000000000000000000000000000000000000000000000000000000000000001000000000000000000000000e1a12515f9ab2764b887bf60b923ca494ebbb2d6000000000000000000000000000000000000000000000000000000000000000000000000000000000000000000000000000000000000000000000000000000010000000000000000000000000000000000000000000000000000031bd1beb878",
          "blockHash": "0x618c475d88259e615f0787fd612e6cdb47185e8967fa553353cd21b4972ac34d",
          "blockNumber": "0x20499ca",
          "blockTimestamp": "0x691c9274",
          "transactionHash": "0xec2d4e47489b3c99bacd707cda7a9462a76e3be4e65d92724d4803d8ba8daef4",
          "transactionIndex": "0x7",
          "logIndex": "0xa",
          "removed": false
        },
        {
          "address": "0x6edce65403992e310a62460808c4b910d972f10f",
          "topics": [
            "0x1ab700d4ced0c005b164c0f789fd09fcbb0156d4c2041b8a3bfbcd961cd1567f"
          ],
          "data": "0x00000000000000000000000000000000000000000000000000000000000000600000000000000000000000000000000000000000000000000000000000000120000000000000000000000000c1868e054425d378095a003ecba3823a5d0135c9000000000000000000000000000000000000000000000000000000000000009901000000000000000100009d35000000000000000000000000a8d57a9f03acf9cdfc3cd378e3c3859661dcb91a00009ce1000000000000000000000000c2eaa4628d61cb9562970df8b0e3998399c2dec679d24accd093b34827e3a249d98bcecf6566917219bfd62387771ce5118d0644000000000000000000000000e78bf5bb8f4a98a1ac3a8de304e5f66bcefe103800000000009d2a600000000000000000000000000000000000000000000000000000000000000000000000000000160003010011010000000000000000000000000000fde800000000000000000000",
          "blockHash": "0x618c475d88259e615f0787fd612e6cdb47185e8967fa553353cd21b4972ac34d",
          "blockNumber": "0x20499ca",
          "blockTimestamp": "0x691c9274",
          "transactionHash": "0xec2d4e47489b3c99bacd707cda7a9462a76e3be4e65d92724d4803d8ba8daef4",
          "transactionIndex": "0x7",
          "logIndex": "0xb",
          "removed": false
        },
        {
          "address": "0xa8d57a9f03acf9cdfc3cd378e3c3859661dcb91a",
          "topics": [
            "0x85496b760a4b7f8d66384b9df21b381f5d1b1e79f229a47aaf4c232edc2fe59a",
            "0x79d24accd093b34827e3a249d98bcecf6566917219bfd62387771ce5118d0644",
            "0x000000000000000000000000e78bf5bb8f4a98a1ac3a8de304e5f66bcefe1038"
          ],
          "data": "0x0000000000000000000000000000000000000000000000000000000000009ce10000000000000000000000000000000000000000000000008ef0f36da28600000000000000000000000000000000000000000000000000008ef0f36da2860000",
          "blockHash": "0x618c475d88259e615f0787fd612e6cdb47185e8967fa553353cd21b4972ac34d",
          "blockNumber": "0x20499ca",
          "blockTimestamp": "0x691c9274",
          "transactionHash": "0xec2d4e47489b3c99bacd707cda7a9462a76e3be4e65d92724d4803d8ba8daef4",
          "transactionIndex": "0x7",
          "logIndex": "0xc",
          "removed": false
        }
      ],
      "logsBloom": "0x00000000000000000000000000000000000000000000000000000000000000000000000000000200201000000000000000004000000000000000000000000000000002000000000000000008000000000000000000000000000000020000000000000040020000808200000000000800000000000000000000000010000000009000000000000020000008080000000000000000000000000000000000000000000000008000000000100000000000000000000000480000000440000000000080000002000000000000000080000000000000000000000000000000000020000000040000000000000000000000002000000000008000000000000000100000",
      "type": "0x2",
      "transactionHash": "0xec2d4e47489b3c99bacd707cda7a9462a76e3be4e65d92724d4803d8ba8daef4",
      "transactionIndex": "0x7",
      "blockHash": "0x618c475d88259e615f0787fd612e6cdb47185e8967fa553353cd21b4972ac34d",
      "blockNumber": "0x20499ca",
      "gasUsed": "0x3b983",
      "effectiveGasPrice": "0xf4297",
      "from": "0xe78bf5bb8f4a98a1ac3a8de304e5f66bcefe1038",
      "to": "0xa8d57a9f03acf9cdfc3cd378e3c3859661dcb91a",
      "contractAddress": null,
      "l1BaseFeeScalar": "0x44d",
      "l1BlobBaseFee": "0x2",
      "l1BlobBaseFeeScalar": "0xa118b",
      "l1Fee": "0x95",
      "l1GasPrice": "0xa",
      "l1GasUsed": "0xb74"
    }
  ],
  "libraries": [],
  "pending": [],
  "returns": {},
  "timestamp": 1763480178,
  "chain": 84532,
  "commit": null
}