{
  "transactions": [
    {
      "hash": "0xd83b2e4f8636f6023ba625bd8a833fb102554722b8b05a8c131247776b32dbe6",
      "transactionType": "CALL",
      "contractName": null,
      "contractAddress": "0xc2eaa4628d61cb9562970df8b0e3998399c2dec6",
      "function": "send((uint32,bytes32,uint256,uint256,bytes,bytes,bytes),(uint256,uint256),address)",
      "arguments": [
        "(40245, 0x000000000000000000000000e78bf5bb8f4a98a1ac3a8de304e5f66bcefe1038, 1000000000000000000, 950000000000000000, 0x0003010011010000000000000000000000000000fde8, 0x, 0x)",
        "(9649643767635, 0)",
        "0x1804c8AB1F12E6bbf3894d4083f33e07309d1f38"
      ],
      "transaction": {
        "from": "0xe78bf5bb8f4a98a1ac3a8de304e5f66bcefe1038",
        "to": "0xc2eaa4628d61cb9562970df8b0e3998399c2dec6",
        "gas": "0x57282",
        "value": "0x8c6bb96c753",
        "input": "0xc7c7f5b30000000000000000000000000000000000000000000000000000000000000080000000000000000000000000000000000000000000000000000008c6bb96c75300000000000000000000000000000000000000000000000000000000000000000000000000000000000000001804c8ab1f12e6bbf3894d4083f33e07309d1f380000000000000000000000000000000000000000000000000000000000009d35000000000000000000000000e78bf5bb8f4a98a1ac3a8de304e5f66bcefe10380000000000000000000000000000000000000000000000000de0b6b3a76400000000000000000000000000000000000000000000000000000d2f13f7789f000000000000000000000000000000000000000000000000000000000000000000e00000000000000000000000000000000000000000000000000000000000000120000000000000000000000000000000000000000000000000000000000000014000000000000000000000000000000000000000000000000000000000000000160003010011010000000000000000000000000000fde80000000000000000000000000000000000000000000000000000000000000000000000000000000000000000000000000000000000000000000000000000000000000000000000000000",
        "nonce": "0xe",
        "chainId": "0xaa36a7"
      },
      "additionalContracts": [],
      "isFixedGasLimit": false
    }
  ],
  "receipts": [
    {
      "status": "0x1",
      "cumulativeGasUsed": "0x11ae98f",
      "logs": [
        {
          "address": "0xc2eaa4628d61cb9562970df8b0e3998399c2dec6",
          "topics": [
            "0xddf252ad1be2c89b69c2b068fc378daa952ba7f163c4a11628f55a4df523b3ef",
            "0x000000000000000000000000e78bf5bb8f4a98a1ac3a8de304e5f66bcefe1038",
            "0x0000000000000000000000000000000000000000000000000000000000000000"
          ],
          "data": "0x0000000000000000000000000000000000000000000000000de0b6b3a7640000",
          "blockHash": "0x9107176a31d295e9caafeca980d9a21b67656308a0eea89ad84b91a6326ae79f",
          "blockNumber": "0x9355a3",
          "blockTimestamp": "0x691c845c",
          "transactionHash": "0xd83b2e4f8636f6023ba625bd8a833fb102554722b8b05a8c131247776b32dbe6",
          "transactionIndex": "0x3c",
          "logIndex": "0xa1",
          "removed": false
        },
        {
          "address": "0xcc1ae8cf5d3904cef3360a9532b477529b177cce",
          "topics": [
            "0x61ed099e74a97a1d7f8bb0952a88ca8b7b8ebd00c126ea04671f92a81213318a"
          ],
          "data": "0x000000000000000000000000718b92b5cb0a5552039b593faf724d182a881eda000000000000000000000000000000000000000000000000000005d6169016b2",
          "blockHash": "0x9107176a31d295e9caafeca980d9a21b67656308a0eea89ad84b91a6326ae79f",
          "blockNumber": "0x9355a3",
          "blockTimestamp": "0x691c845c",
          "transactionHash": "0xd83b2e4f8636f6023ba625bd8a833fb102554722b8b05a8c131247776b32dbe6",
          "transactionIndex": "0x3c",
          "logIndex": "0xa2",
          "removed": false
        },
        {
          "address": "0xcc1ae8cf5d3904cef3360a9532b477529b177cce",
          "topics": [
            "0x07ea52d82345d6e838192107d8fd7123d9c2ec8e916cd0aad13fd2b60db24644"
          ],
          "data": "0x000000000000000000000000000000000000000000000000000000000000006000000000000000000000000000000000000000000000000000000000000000a000000000000000000000000000000000000000000000000000000000000000c000000000000000000000000000000000000000000000000000000000000000010000000000000000000000008eebf8b423b73bfca51a1db4b7354aa0bfca919300000000000000000000000000000000000000000000000000000000000000000000000000000000000000000000000000000000000000000000000000000001000000000000000000000000000000000000000000000000000002f0a506b0a1",
          "blockHash": "0x9107176a31d295e9caafeca980d9a21b67656308a0eea89ad84b91a6326ae79f",
          "blockNumber": "0x9355a3",
          "blockTimestamp": "0x691c845c",
          "transactionHash": "0xd83b2e4f8636f6023ba625bd8a833fb102554722b8b05a8c131247776b32dbe6",
          "transactionIndex": "0x3c",
          "logIndex": "0xa3",
          "removed": false
        },
        {
          "address": "0x6edce65403992e310a62460808c4b910d972f10f",
          "topics": [
            "0x1ab700d4ced0c005b164c0f789fd09fcbb0156d4c2041b8a3bfbcd961cd1567f"
          ],
          "data": "0x00000000000000000000000000000000000000000000000000000000000000600000000000000000000000000000000000000000000000000000000000000120000000000000000000000000cc1ae8cf5d3904cef3360a9532b477529b177cce000000000000000000000000000000000000000000000000000000000000009901000000000000000100009ce1000000000000000000000000c2eaa4628d61cb9562970df8b0e3998399c2dec600009d35000000000000000000000000a8d57a9f03acf9cdfc3cd378e3c3859661dcb91a806d2c86e34e04d6fb039b782f6ccb6a6f41611d039dd14ecd3c916349e98574000000000000000000000000e78bf5bb8f4a98a1ac3a8de304e5f66bcefe103800000000000f42400000000000000000000000000000000000000000000000000000000000000000000000000000160003010011010000000000000000000000000000fde800000000000000000000",
          "blockHash": "0x9107176a31d295e9caafeca980d9a21b67656308a0eea89ad84b91a6326ae79f",
          "blockNumber": "0x9355a3",
          "blockTimestamp": "0x691c845c",
          "transactionHash": "0xd83b2e4f8636f6023ba625bd8a833fb102554722b8b05a8c131247776b32dbe6",
          "transactionIndex": "0x3c",
          "logIndex": "0xa4",
          "removed": false
        },
        {
          "address": "0xc2eaa4628d61cb9562970df8b0e3998399c2dec6",
          "topics": [
            "0x85496b760a4b7f8d66384b9df21b381f5d1b1e79f229a47aaf4c232edc2fe59a",
            "0x806d2c86e34e04d6fb039b782f6ccb6a6f41611d039dd14ecd3c916349e98574",
            "0x000000000000000000000000e78bf5bb8f4a98a1ac3a8de304e5f66bcefe1038"
          ],
          "data": "0x0000000000000000000000000000000000000000000000000000000000009d350000000000000000000000000000000000000000000000000de0b6b3a76400000000000000000000000000000000000000000000000000000de0b6b3a7640000",
          "blockHash": "0x9107176a31d295e9caafeca980d9a21b67656308a0eea89ad84b91a6326ae79f",
          "blockNumber": "0x9355a3",
          "blockTimestamp": "0x691c845c",
          "transactionHash": "0xd83b2e4f8636f6023ba625bd8a833fb102554722b8b05a8c131247776b32dbe6",
          "transactionIndex": "0x3c",
          "logIndex": "0xa5",
          "removed": false
        }
      ],
      "logsBloom": "0x00000000000000000000000000000000002000000000000000000100000100000000000000000000200000000000000000000000000000000000000000000000000002000000000000000008000000000000000000000000000000000000000000000040020000808200000000000800000000000000000000000010000000001000000000000020000000080000000000000000000000000000000000000000000000008000000000100000000000000000000000400004000440000000000000000002000000000000000080000000000000080100000000000000000020000000040000000000008000000000002000000000008000000000000400000020",
      "type": "0x2",
      "transactionHash": "0xd83b2e4f8636f6023ba625bd8a833fb102554722b8b05a8c131247776b32dbe6",
      "transactionIndex": "0x3c",
      "blockHash": "0x9107176a31d295e9caafeca980d9a21b67656308a0eea89ad84b91a6326ae79f",
      "blockNumber": "0x9355a3",
      "gasUsed": "0x3b983",
      "effectiveGasPrice": "0x11a4a3",
      "from": "0xe78bf5bb8f4a98a1ac3a8de304e5f66bcefe1038",
      "to": "0xc2eaa4628d61cb9562970df8b0e3998399c2dec6",
      "contractAddress": null
    }
  ],
  "libraries": [],
  "pending": [],
  "returns": {},
  "timestamp": 1763476572,
  "chain": 11155111,
  "commit": null
}