{
  "transactions": [
    {
      "hash": "0x9fa08a48ebac2fde8496a61979fe1103ae0ff985e819c8a056ab8406328bef8f",
      "transactionType": "CALL",
      "contractName": null,
      "contractAddress": "0x613f5bb247dd3d2c9b18b938b7f8466ff0acb15f",
      "function": "send((uint32,bytes32,uint256,uint256,bytes,bytes,bytes),(uint256,uint256),address)",
      "arguments": [
        "(40245, 0x000000000000000000000000e78bf5bb8f4a98a1ac3a8de304e5f66bcefe1038, 1000000000000000000, 950000000000000000, 0x0003010011010000000000000000000000000000fde8, 0x, 0x)",
        "(11467292900140, 0)",
        "0x1804c8AB1F12E6bbf3894d4083f33e07309d1f38"
      ],
      "transaction": {
        "from": "0xe78bf5bb8f4a98a1ac3a8de304e5f66bcefe1038",
        "to": "0x613f5bb247dd3d2c9b18b938b7f8466ff0acb15f",
        "gas": "0x4ee8d",
        "value": "0xa6defeb7b2c",
        "input": "0xc7c7f5b3000000000000000000000000000000000000000000000000000000000000008000000000000000000000000000000000000000000000000000000a6defeb7b2c00000000000000000000000000000000000000000000000000000000000000000000000000000000000000001804c8ab1f12e6bbf3894d4083f33e07309d1f380000000000000000000000000000000000000000000000000000000000009d35000000000000000000000000e78bf5bb8f4a98a1ac3a8de304e5f66bcefe10380000000000000000000000000000000000000000000000000de0b6b3a76400000000000000000000000000000000000000000000000000000d2f13f7789f000000000000000000000000000000000000000000000000000000000000000000e00000000000000000000000000000000000000000000000000000000000000120000000000000000000000000000000000000000000000000000000000000014000000000000000000000000000000000000000000000000000000000000000160003010011010000000000000000000000000000fde80000000000000000000000000000000000000000000000000000000000000000000000000000000000000000000000000000000000000000000000000000000000000000000000000000",
        "nonce": "0x7",
        "chainId": "0x66eee"
      },
      "additionalContracts": [],
      "isFixedGasLimit": false
    }
  ],
  "receipts": [
    {
      "status": "0x1",
      "cumulativeGasUsed": "0x4a0da",
      "logs": [
        {
          "address": "0x613f5bb247dd3d2c9b18b938b7f8466ff0acb15f",
          "topics": [
            "0xddf252ad1be2c89b69c2b068fc378daa952ba7f163c4a11628f55a4df523b3ef",
            "0x000000000000000000000000e78bf5bb8f4a98a1ac3a8de304e5f66bcefe1038",
            "0x0000000000000000000000000000000000000000000000000000000000000000"
          ],
          "data": "0x0000000000000000000000000000000000000000000000000de0b6b3a7640000",
          "blockHash": "0x7d65586cabad3f06cefdce96daa15b9d5771739bbc501bdcf2b8a8eeea2ede9b",
          "blockNumber": "0xd0f7345",
          "blockTimestamp": "0x6926e4c5",
          "transactionHash": "0x9fa08a48ebac2fde8496a61979fe1103ae0ff985e819c8a056ab8406328bef8f",
          "transactionIndex": "0x2",
          "logIndex": "0x0",
          "removed": false
        },
        {
          "address": "0x4f7cd4da19abb31b0ec98b9066b9e857b1bf9c0e",
          "topics": [
            "0x61ed099e74a97a1d7f8bb0952a88ca8b7b8ebd00c126ea04671f92a81213318a"
          ],
          "data": "0x0000000000000000000000005df3a1cebbd9c8ba7f8df51fd632a9aef8308897000000000000000000000000000000000000000000000000000006ef42994c78",
          "blockHash": "0x7d65586cabad3f06cefdce96daa15b9d5771739bbc501bdcf2b8a8eeea2ede9b",
          "blockNumber": "0xd0f7345",
          "blockTimestamp": "0x6926e4c5",
          "transactionHash": "0x9fa08a48ebac2fde8496a61979fe1103ae0ff985e819c8a056ab8406328bef8f",
          "transactionIndex": "0x2",
          "logIndex": "0x1",
          "removed": false
        },
        {
          "address": "0x4f7cd4da19abb31b0ec98b9066b9e857b1bf9c0e",
          "topics": [
            "0x07ea52d82345d6e838192107d8fd7123d9c2ec8e916cd0aad13fd2b60db24644"
          ],
          "data": "0x000000000000000000000000000000000000000000000000000000000000006000000000000000000000000000000000000000000000000000000000000000a000000000000000000000000000000000000000000000000000000000000000c0000000000000000000000000000000000000000000000000000000000000000100000000000000000000000053f488e93b4f1b60e8e83aa374dbe1780a1ee8a8000000000000000000000000000000000000000000000000000000000000000000000000000000000000000000000000000000000000000000000000000000010000000000000000000000000000000000000000000000000000037ead522eb4",
          "blockHash": "0x7d65586cabad3f06cefdce96daa15b9d5771739bbc501bdcf2b8a8eeea2ede9b",
          "blockNumber": "0xd0f7345",
          "blockTimestamp": "0x6926e4c5",
          "transactionHash": "0x9fa08a48ebac2fde8496a61979fe1103ae0ff985e819c8a056ab8406328bef8f",
          "transactionIndex": "0x2",
          "logIndex": "0x2",
          "removed": false
        },
        {
          "address": "0x6edce65403992e310a62460808c4b910d972f10f",
          "topics": [
            "0x1ab700d4ced0c005b164c0f789fd09fcbb0156d4c2041b8a3bfbcd961cd1567f"
          ],
          "data": "0x000000000000000000000000000000000000000000000000000000000000006000000000000000000000000000000000000000000000000000000000000001200000000000000000000000004f7cd4da19abb31b0ec98b9066b9e857b1bf9c0e000000000000000000000000000000000000000000000000000000000000009901000000000000000100009d27000000000000000000000000613f5bb247dd3d2c9b18b938b7f8466ff0acb15f00009d35000000000000000000000000613f5bb247dd3d2c9b18b938b7f8466ff0acb15f0833fd112be3b6f228445503278d4ea14cb239012912a5e7dbeb76f922f05388000000000000000000000000e78bf5bb8f4a98a1ac3a8de304e5f66bcefe103800000000000f42400000000000000000000000000000000000000000000000000000000000000000000000000000160003010011010000000000000000000000000000fde800000000000000000000",
          "blockHash": "0x7d65586cabad3f06cefdce96daa15b9d5771739bbc501bdcf2b8a8eeea2ede9b",
          "blockNumber": "0xd0f7345",
          "blockTimestamp": "0x6926e4c5",
          "transactionHash": "0x9fa08a48ebac2fde8496a61979fe1103ae0ff985e819c8a056ab8406328bef8f",
          "transactionIndex": "0x2",
          "logIndex": "0x3",
          "removed": false
        },
        {
          "address": "0x613f5bb247dd3d2c9b18b938b7f8466ff0acb15f",
          "topics": [
            "0x85496b760a4b7f8d66384b9df21b381f5d1b1e79f229a47aaf4c232edc2fe59a",
            "0x0833fd112be3b6f228445503278d4ea14cb239012912a5e7dbeb76f922f05388",
            "0x000000000000000000000000e78bf5bb8f4a98a1ac3a8de304e5f66bcefe1038"
          ],
          "data": "0x0000000000000000000000000000000000000000000000000000000000009d350000000000000000000000000000000000000000000000000de0b6b3a76400000000000000000000000000000000000000000000000000000de0b6b3a7640000",
          "blockHash": "0x7d65586cabad3f06cefdce96daa15b9d5771739bbc501bdcf2b8a8eeea2ede9b",
          "blockNumber": "0xd0f7345",
          "blockTimestamp": "0x6926e4c5",
          "transactionHash": "0x9fa08a48ebac2fde8496a61979fe1103ae0ff985e819c8a056ab8406328bef8f",
          "transactionIndex": "0x2",
          "logIndex": "0x4",
          "removed": false
        }
      ],
      "logsBloom": "0x00000000000000000000000000000000000202000000000000000000000000000000000000000000200000000000000000000000808000000000000000000000000002000000000000000008000000000000000000000000000000000000000000000040020000808200000000000800040000000000000000000010000000001000000000000020000000080000000000000002000000010000000000000000000000008000000000102000000000000000000000400000000440000000000000000002000000000000000080200000000000000000000000000000000020000000040000000000000000000000002000000000008000000000000000000000",
      "type": "0x2",
      "transactionHash": "0x9fa08a48ebac2fde8496a61979fe1103ae0ff985e819c8a056ab8406328bef8f",
      "transactionIndex": "0x2",
      "blockHash": "0x7d65586cabad3f06cefdce96daa15b9d5771739bbc501bdcf2b8a8eeea2ede9b",
      "blockNumber": "0xd0f7345",
      "gasUsed": "0x3b983",
      "effectiveGasPrice": "0x1312d00",
      "from": "0xe78bf5bb8f4a98a1ac3a8de304e5f66bcefe1038",
      "to": "0x613f5bb247dd3d2c9b18b938b7f8466ff0acb15f",
      "contractAddress": null,
      "gasUsedForL1": "0x0",
      "l1BlockNumber": "0x942b76",
      "timeboosted": false
    }
  ],
  "libraries": [],
  "pending": [],
  "returns": {},
  "timestamp": 1764156614,
  "chain": 421614,
  "commit": null
}